{
  "contractName": "KlayTogetter",
  "abi": [
    {
      "constant": true,
      "inputs": [
        {
          "name": "",
          "type": "uint256"
        }
      ],
      "name": "nestIdList",
      "outputs": [
        {
          "name": "",
          "type": "uint256"
        }
      ],
      "payable": false,
      "stateMutability": "view",
      "type": "function"
    },
    {
      "constant": true,
      "inputs": [
        {
          "name": "",
          "type": "uint256"
        }
      ],
      "name": "members",
      "outputs": [
        {
          "name": "kakaoId",
          "type": "string"
        },
        {
          "name": "memberAddress",
          "type": "address"
        }
      ],
      "payable": false,
      "stateMutability": "view",
      "type": "function"
    },
    {
      "constant": true,
      "inputs": [],
      "name": "owner",
      "outputs": [
        {
          "name": "",
          "type": "address"
        }
      ],
      "payable": false,
      "stateMutability": "view",
      "type": "function"
    },
    {
      "constant": false,
      "inputs": [
        {
          "name": "newOwner",
          "type": "address"
        }
      ],
      "name": "transferOwnership",
      "outputs": [],
      "payable": false,
      "stateMutability": "nonpayable",
      "type": "function"
    },
    {
      "constant": true,
      "inputs": [
        {
          "name": "",
          "type": "uint256"
        }
      ],
      "name": "nestMapping",
      "outputs": [
        {
          "name": "seq",
          "type": "uint256"
        },
        {
          "name": "opener",
          "type": "address"
        },
        {
          "name": "nestName",
          "type": "string"
        },
        {
          "name": "eggCnt",
          "type": "uint8"
        },
        {
          "name": "paymentTurn",
          "type": "uint8"
        },
        {
          "name": "amount",
          "type": "uint256"
        },
        {
          "name": "period",
          "type": "uint8"
        },
        {
          "name": "rate",
          "type": "uint8"
        },
        {
          "name": "joinAmount",
          "type": "uint256"
        },
        {
          "name": "createDate",
          "type": "uint256"
        },
        {
          "name": "depositDate",
          "type": "uint256"
        },
        {
          "name": "PaymentDate",
          "type": "uint256"
        }
      ],
      "payable": false,
      "stateMutability": "view",
      "type": "function"
    },
    {
      "anonymous": false,
      "inputs": [
        {
          "indexed": false,
          "name": "_addr",
          "type": "address"
        },
        {
          "indexed": false,
          "name": "sendValue",
          "type": "uint256"
        }
      ],
      "name": "createNestEvent",
      "type": "event"
    },
    {
      "anonymous": false,
      "inputs": [
        {
          "indexed": false,
          "name": "joinAmount",
          "type": "uint256"
        },
        {
          "indexed": false,
          "name": "sendValue",
          "type": "uint256"
        }
      ],
      "name": "joinNestEvent",
      "type": "event"
    },
    {
      "constant": false,
      "inputs": [
        {
          "name": "_kakaoId",
          "type": "string"
        },
        {
          "name": "_address",
          "type": "address"
        }
      ],
      "name": "createMember",
      "outputs": [],
      "payable": false,
      "stateMutability": "nonpayable",
      "type": "function"
    },
    {
      "constant": false,
      "inputs": [
        {
          "name": "_nestName",
          "type": "string"
        },
        {
          "name": "_eggCnt",
          "type": "uint8"
        },
        {
          "name": "_amount",
          "type": "uint256"
        },
        {
          "name": "_period",
          "type": "uint8"
        },
        {
          "name": "_rate",
          "type": "uint8"
        },
        {
          "name": "_turn",
          "type": "uint8"
        }
      ],
      "name": "createNest",
      "outputs": [],
      "payable": true,
      "stateMutability": "payable",
      "type": "function"
    },
    {
      "constant": false,
      "inputs": [
        {
          "name": "_nestId",
          "type": "uint256"
        },
        {
          "name": "_turn",
          "type": "uint8"
        }
      ],
      "name": "joinNest",
      "outputs": [],
      "payable": true,
      "stateMutability": "payable",
      "type": "function"
    },
    {
      "constant": false,
      "inputs": [
        {
          "name": "_nestId",
          "type": "uint256"
        }
      ],
      "name": "payment",
      "outputs": [],
      "payable": false,
      "stateMutability": "nonpayable",
      "type": "function"
    },
    {
      "constant": true,
      "inputs": [
        {
          "name": "_nestId",
          "type": "uint256"
        }
      ],
      "name": "getMemberAdressListOfNest",
      "outputs": [
        {
          "name": "",
          "type": "address[]"
        }
      ],
      "payable": false,
      "stateMutability": "view",
      "type": "function"
    },
    {
      "constant": true,
      "inputs": [
        {
          "name": "_nestId",
          "type": "uint256"
        },
        {
          "name": "_eggAddress",
          "type": "address"
        }
      ],
      "name": "getEggInfoOfNest",
      "outputs": [
        {
          "name": "",
          "type": "uint256"
        },
        {
          "name": "",
          "type": "uint8"
        },
        {
          "name": "",
          "type": "uint8"
        }
      ],
      "payable": false,
      "stateMutability": "view",
      "type": "function"
    },
    {
      "constant": true,
      "inputs": [],
      "name": "getMemberJoinNestIdList",
      "outputs": [
        {
          "name": "",
          "type": "uint256[]"
        }
      ],
      "payable": false,
      "stateMutability": "view",
      "type": "function"
    },
    {
      "constant": true,
      "inputs": [],
      "name": "getNestIdListLength",
      "outputs": [
        {
          "name": "",
          "type": "uint256"
        }
      ],
      "payable": false,
      "stateMutability": "view",
      "type": "function"
    },
    {
      "constant": true,
      "inputs": [],
      "name": "getNestIdList",
      "outputs": [
        {
          "name": "",
          "type": "uint256[]"
        }
      ],
      "payable": false,
      "stateMutability": "view",
      "type": "function"
    },
    {
      "constant": true,
      "inputs": [
        {
          "name": "_kakaoId",
          "type": "string"
        }
      ],
      "name": "getMemberSeqByKakaoId",
      "outputs": [
        {
          "name": "",
          "type": "uint256"
        }
      ],
      "payable": false,
      "stateMutability": "view",
      "type": "function"
    },
    {
      "constant": true,
      "inputs": [],
      "name": "getCABalance",
      "outputs": [
        {
          "name": "",
          "type": "uint256"
        }
      ],
      "payable": false,
      "stateMutability": "view",
      "type": "function"
    },
    {
      "constant": true,
      "inputs": [],
      "name": "getMemberId",
      "outputs": [
        {
          "name": "",
          "type": "uint256"
        }
      ],
      "payable": false,
      "stateMutability": "view",
      "type": "function"
    },
    {
      "constant": true,
      "inputs": [],
      "name": "getMemberLength",
      "outputs": [
        {
          "name": "",
          "type": "uint256"
        }
      ],
      "payable": false,
      "stateMutability": "view",
      "type": "function"
    },
    {
      "constant": true,
      "inputs": [],
      "name": "connectionTest",
      "outputs": [
        {
          "name": "",
          "type": "string"
        }
      ],
      "payable": false,
      "stateMutability": "pure",
      "type": "function"
    }
  ],
  "bytecode": "0x6080604052336000806101000a81548173ffffffffffffffffffffffffffffffffffffffff021916908373ffffffffffffffffffffffffffffffffffffffff160217905550611d21806100536000396000f300608060405260043610610107576000357c0100000000000000000000000000000000000000000000000000000000900463ffffffff16806303b5ec2c1461010c578063329846431461018e5780633d056d40146101cf5780634bf9fbda1461025f5780635d682a70146102cb5780635daf08ca146102f85780636b42cf4d146103d15780638b3c99e31461042c5780638da5cb5b146104595780638f38d7e2146104b05780639d151aab146104ff578063c0d3e7d51461056b578063cf6b034814610596578063d965ea0014610611578063db2959291461063c578063eb17418c14610667578063f2fde38b146106d3578063f30a002c14610716578063fd8b75c714610741575b600080fd5b34801561011857600080fd5b5061013760048036038101908080359060200190929190505050610878565b6040518080602001828103825283818151815260200191508051906020019060200280838360005b8381101561017a57808201518184015260208101905061015f565b505050509050019250505060405180910390f35b34801561019a57600080fd5b506101b96004803603810190808035906020019092919050505061091c565b6040518082815260200191505060405180910390f35b3480156101db57600080fd5b506101e461093f565b6040518080602001828103825283818151815260200191508051906020019080838360005b83811015610224578082015181840152602081019050610209565b50505050905090810190601f1680156102515780820380516001836020036101000a031916815260200191505b509250505060405180910390f35b6102c9600480360381019080803590602001908201803590602001919091929391929390803560ff16906020019092919080359060200190929190803560ff169060200190929190803560ff169060200190929190803560ff16906020019092919050505061097c565b005b6102f660048036038101908080359060200190929190803560ff169060200190929190505050610c4f565b005b34801561030457600080fd5b5061032360048036038101908080359060200190929190505050610f20565b60405180806020018373ffffffffffffffffffffffffffffffffffffffff1673ffffffffffffffffffffffffffffffffffffffff168152602001828103825284818151815260200191508051906020019080838360005b8381101561039557808201518184015260208101905061037a565b50505050905090810190601f1680156103c25780820380516001836020036101000a031916815260200191505b50935050505060405180910390f35b3480156103dd57600080fd5b5061042a600480360381019080803590602001908201803590602001919091929391929390803573ffffffffffffffffffffffffffffffffffffffff16906020019092919050505061100b565b005b34801561043857600080fd5b506104576004803603810190808035906020019092919050505061127b565b005b34801561046557600080fd5b5061046e6113b7565b604051808273ffffffffffffffffffffffffffffffffffffffff1673ffffffffffffffffffffffffffffffffffffffff16815260200191505060405180910390f35b3480156104bc57600080fd5b506104e96004803603810190808035906020019082018035906020019190919293919293905050506113dc565b6040518082815260200191505060405180910390f35b34801561050b57600080fd5b5061051461140c565b6040518080602001828103825283818151815260200191508051906020019060200280838360005b8381101561055757808201518184015260208101905061053c565b505050509050019250505060405180910390f35b34801561057757600080fd5b506105806114a1565b6040518082815260200191505060405180910390f35b3480156105a257600080fd5b506105e160048036038101908080359060200190929190803573ffffffffffffffffffffffffffffffffffffffff1690602001909291905050506114c0565b604051808481526020018360ff1660ff1681526020018260ff1660ff168152602001935050505060405180910390f35b34801561061d57600080fd5b50610626611601565b6040518082815260200191505060405180910390f35b34801561064857600080fd5b5061065161160e565b6040518082815260200191505060405180910390f35b34801561067357600080fd5b5061067c611655565b6040518080602001828103825283818151815260200191508051906020019060200280838360005b838110156106bf5780820151818401526020810190506106a4565b505050509050019250505060405180910390f35b3480156106df57600080fd5b50610714600480360381019080803573ffffffffffffffffffffffffffffffffffffffff1690602001909291905050506116ad565b005b34801561072257600080fd5b5061072b611782565b6040518082815260200191505060405180910390f35b34801561074d57600080fd5b5061076c6004803603810190808035906020019092919050505061178f565b604051808d81526020018c73ffffffffffffffffffffffffffffffffffffffff1673ffffffffffffffffffffffffffffffffffffffff168152602001806020018b60ff1660ff1681526020018a60ff1660ff1681526020018981526020018860ff1660ff1681526020018760ff1660ff16815260200186815260200185815260200184815260200183815260200182810382528c818151815260200191508051906020019080838360005b83811015610832578082015181840152602081019050610817565b50505050905090810190601f16801561085f5780820380516001836020036101000a031916815260200191505b509d505050505050505050505050505060405180910390f35b606060066000838152602001908152602001600020600a0180548060200260200160405190810160405280929190818152602001828054801561091057602002820191906000526020600020905b8160009054906101000a900473ffffffffffffffffffffffffffffffffffffffff1673ffffffffffffffffffffffffffffffffffffffff16815260200190600101908083116108c6575b50505050509050919050565b60028181548110151561092b57fe5b906000526020600020016000915090505481565b60606040805190810160405280600281526020017f4f4b000000000000000000000000000000000000000000000000000000000000815250905090565b600080341115156109f5576040517f08c379a000000000000000000000000000000000000000000000000000000000815260040180806020018281038252600d8152602001807f67697665206d65206d6f6e65790000000000000000000000000000000000000081525060200191505060405180910390fd5b7f61ddc65707516e7e8e4dec9f2384c561ee27e0605a8f8d59eec6f251dc8989f63334604051808373ffffffffffffffffffffffffffffffffffffffff1673ffffffffffffffffffffffffffffffffffffffff1681526020018281526020019250505060405180910390a160016002805490500190506002819080600181540180825580915050906001820390600052602060002001600090919290919091505550806006600083815260200190815260200160002060000181905550336006600083815260200190815260200160002060010160006101000a81548173ffffffffffffffffffffffffffffffffffffffff021916908373ffffffffffffffffffffffffffffffffffffffff1602179055508787600660008481526020019081526020016000206002019190610b2c929190611bd0565b50856006600083815260200190815260200160002060030160006101000a81548160ff021916908360ff16021790555060006006600083815260200190815260200160002060030160016101000a81548160ff021916908360ff160217905550846006600083815260200190815260200160002060040181905550836006600083815260200190815260200160002060050160006101000a81548160ff021916908360ff160217905550826006600083815260200190815260200160002060050160016101000a81548160ff021916908360ff160217905550346006600083815260200190815260200160002060060181905550426006600083815260200190815260200160002060070181905550610c4581836118db565b5050505050505050565b60066000838152602001908152602001600020600c0160008260ff1660ff16815260200190815260200160002060009054906101000a900473ffffffffffffffffffffffffffffffffffffffff1673ffffffffffffffffffffffffffffffffffffffff166000141515610d2a576040517f08c379a00000000000000000000000000000000000000000000000000000000081526004018080602001828103825260138152602001807f616c72656164792063686f6f7365207475726e0000000000000000000000000081525060200191505060405180910390fd5b60066000838152602001908152602001600020600c0160008260ff1660ff16815260200190815260200160002060009054906101000a900473ffffffffffffffffffffffffffffffffffffffff1673ffffffffffffffffffffffffffffffffffffffff163373ffffffffffffffffffffffffffffffffffffffff1614151515610e1b576040517f08c379a00000000000000000000000000000000000000000000000000000000081526004018080602001828103825260118152602001807f616c7265616479206a6f696e206e65737400000000000000000000000000000081525060200191505060405180910390fd5b600034111515610e93576040517f08c379a000000000000000000000000000000000000000000000000000000000815260040180806020018281038252600d8152602001807f67697665206d65206d6f6e65790000000000000000000000000000000000000081525060200191505060405180910390fd5b610ebc346006600085815260200190815260200160002060040154611bb290919063ffffffff16565b507fe2bd12690ff74dc3498d0f06a7213f96c08d635d595e88a610ed2bca97bddf33600660008481526020019081526020016000206004015434604051808381526020018281526020019250505060405180910390a1610f1c82826118db565b5050565b600181815481101515610f2f57fe5b9060005260206000209060020201600091509050806000018054600181600116156101000203166002900480601f016020809104026020016040519081016040528092919081815260200182805460018160011615610100020316600290048015610fdb5780601f10610fb057610100808354040283529160200191610fdb565b820191906000526020600020905b815481529060010190602001808311610fbe57829003601f168201915b5050505050908060010160009054906101000a900473ffffffffffffffffffffffffffffffffffffffff16905082565b600080600460008473ffffffffffffffffffffffffffffffffffffffff1673ffffffffffffffffffffffffffffffffffffffff168152602001908152602001600020541415156110c3576040517f08c379a00000000000000000000000000000000000000000000000000000000081526004018080602001828103825260108152602001807f616c72656164792065786973742069640000000000000000000000000000000081525060200191505060405180910390fd5b6001604080519081016040528086868080601f01602080910402602001604051908101604052809392919081815260200183838082843782019150505050505081526020018473ffffffffffffffffffffffffffffffffffffffff16815250908060018154018082558091505090600182039060005260206000209060020201600090919290919091506000820151816000019080519060200190611169929190611c50565b5060208201518160010160006101000a81548173ffffffffffffffffffffffffffffffffffffffff021916908373ffffffffffffffffffffffffffffffffffffffff1602179055505050905080600460008473ffffffffffffffffffffffffffffffffffffffff1673ffffffffffffffffffffffffffffffffffffffff16815260200190815260200160002081905550816005600083815260200190815260200160002060006101000a81548173ffffffffffffffffffffffffffffffffffffffff021916908373ffffffffffffffffffffffffffffffffffffffff16021790555080600385856040518083838082843782019150509250505090815260200160405180910390208190555050505050565b60008060008060009054906101000a900473ffffffffffffffffffffffffffffffffffffffff1673ffffffffffffffffffffffffffffffffffffffff163373ffffffffffffffffffffffffffffffffffffffff161415156112db57600080fd5b6006600085815260200190815260200160002060030160019054906101000a900460ff16925060066000858152602001908152602001600020600c0160008460ff1660ff16815260200190815260200160002060009054906101000a900473ffffffffffffffffffffffffffffffffffffffff169150600660008581526020019081526020016000206004015490508173ffffffffffffffffffffffffffffffffffffffff166108fc829081150290604051600060405180830381858888f193505050501580156113b0573d6000803e3d6000fd5b5050505050565b6000809054906101000a900473ffffffffffffffffffffffffffffffffffffffff1681565b60006003838360405180838380828437820191505092505050908152602001604051809103902054905092915050565b6060600760003373ffffffffffffffffffffffffffffffffffffffff1673ffffffffffffffffffffffffffffffffffffffff16815260200190815260200160002080548060200260200160405190810160405280929190818152602001828054801561149757602002820191906000526020600020905b815481526020019060010190808311611483575b5050505050905090565b60003073ffffffffffffffffffffffffffffffffffffffff1631905090565b60008060008060008060066000898152602001908152602001600020600b0160008873ffffffffffffffffffffffffffffffffffffffff1673ffffffffffffffffffffffffffffffffffffffff16815260200190815260200160002060000154925060066000898152602001908152602001600020600b0160008873ffffffffffffffffffffffffffffffffffffffff1673ffffffffffffffffffffffffffffffffffffffff16815260200190815260200160002060010160009054906101000a900460ff16915060066000898152602001908152602001600020600b0160008873ffffffffffffffffffffffffffffffffffffffff1673ffffffffffffffffffffffffffffffffffffffff16815260200190815260200160002060010160019054906101000a900460ff1690508282829550955095505050509250925092565b6000600180549050905090565b6000600460003373ffffffffffffffffffffffffffffffffffffffff1673ffffffffffffffffffffffffffffffffffffffff16815260200190815260200160002054905090565b606060028054806020026020016040519081016040528092919081815260200182805480156116a357602002820191906000526020600020905b81548152602001906001019080831161168f575b5050505050905090565b6000809054906101000a900473ffffffffffffffffffffffffffffffffffffffff1673ffffffffffffffffffffffffffffffffffffffff163373ffffffffffffffffffffffffffffffffffffffff1614151561170857600080fd5b600073ffffffffffffffffffffffffffffffffffffffff168173ffffffffffffffffffffffffffffffffffffffff1614151561177f57806000806101000a81548173ffffffffffffffffffffffffffffffffffffffff021916908373ffffffffffffffffffffffffffffffffffffffff1602179055505b50565b6000600280549050905090565b60066020528060005260406000206000915090508060000154908060010160009054906101000a900473ffffffffffffffffffffffffffffffffffffffff1690806002018054600181600116156101000203166002900480601f0160208091040260200160405190810160405280929190818152602001828054600181600116156101000203166002900480156118675780601f1061183c57610100808354040283529160200191611867565b820191906000526020600020905b81548152906001019060200180831161184a57829003601f168201915b5050505050908060030160009054906101000a900460ff16908060030160019054906101000a900460ff16908060040154908060050160009054906101000a900460ff16908060050160019054906101000a900460ff1690806006015490806007015490806008015490806009015490508c565b3360066000848152602001908152602001600020600c0160008360ff1660ff16815260200190815260200160002060006101000a81548173ffffffffffffffffffffffffffffffffffffffff021916908373ffffffffffffffffffffffffffffffffffffffff16021790555060066000838152602001908152602001600020600a013390806001815401808255809150509060018203906000526020600020016000909192909190916101000a81548173ffffffffffffffffffffffffffffffffffffffff021916908373ffffffffffffffffffffffffffffffffffffffff16021790555050600460003373ffffffffffffffffffffffffffffffffffffffff1673ffffffffffffffffffffffffffffffffffffffff1681526020019081526020016000205460066000848152602001908152602001600020600b0160003373ffffffffffffffffffffffffffffffffffffffff1673ffffffffffffffffffffffffffffffffffffffff168152602001908152602001600020600001819055508060066000848152602001908152602001600020600b0160003373ffffffffffffffffffffffffffffffffffffffff1673ffffffffffffffffffffffffffffffffffffffff16815260200190815260200160002060010160006101000a81548160ff021916908360ff160217905550611b44600160066000858152602001908152602001600020600b0160003373ffffffffffffffffffffffffffffffffffffffff1673ffffffffffffffffffffffffffffffffffffffff16815260200190815260200160002060010160019054906101000a900460ff1660ff16611bb290919063ffffffff16565b50600760003373ffffffffffffffffffffffffffffffffffffffff1673ffffffffffffffffffffffffffffffffffffffff1681526020019081526020016000208290806001815401808255809150509060018203906000526020600020016000909192909190915055505050565b6000808284019050838110151515611bc657fe5b8091505092915050565b828054600181600116156101000203166002900490600052602060002090601f016020900481019282601f10611c1157803560ff1916838001178555611c3f565b82800160010185558215611c3f579182015b82811115611c3e578235825591602001919060010190611c23565b5b509050611c4c9190611cd0565b5090565b828054600181600116156101000203166002900490600052602060002090601f016020900481019282601f10611c9157805160ff1916838001178555611cbf565b82800160010185558215611cbf579182015b82811115611cbe578251825591602001919060010190611ca3565b5b509050611ccc9190611cd0565b5090565b611cf291905b80821115611cee576000816000905550600101611cd6565b5090565b905600a165627a7a72305820c23a24626058cc1dd2edb8782443747fab3b78f62366e1daef2bbccb7b379d3e0029",
  "source": "// Klaytn IDE uses solidity 0.4.24, 0.5.6 versions.\npragma solidity >=0.4.24 <=0.5.6;\n/**\n * @title SafeMath\n * @dev Math operations with safety checks that throw on error\n */\nlibrary SafeMath {\n    function mul(uint256 a, uint256 b) internal pure returns (uint256) {\n        if (a == 0) {\n            return 0;\n        }\n        uint256 c = a * b;\n        assert(c / a == b);\n        return c;\n    }\n\n    function div(uint256 a, uint256 b) internal pure returns (uint256) {\n        // assert(b > 0); // Solidity automatically throws when dividing by 0\n        uint256 c = a / b;\n        // assert(a == b * c + a % b); // There is no case in which this doesn't hold\n        return c;\n    }\n\n    function sub(uint256 a, uint256 b) internal pure returns (uint256) {\n        assert(b <= a);\n        return a - b;\n    }\n\n    function add(uint256 a, uint256 b) internal pure returns (uint256) {\n        uint256 c = a + b;\n        assert(c >= a);\n        return c;\n    }\n}\n\n/**\n * @title Ownable\n * @dev The Ownable contract has an owner address, and provides basic authorization control\n * functions, this simplifies the implementation of \"user permissions\".\n */\ncontract Ownable {\n    address public owner;\n\n    /**\n      * @dev The Ownable constructor sets the original `owner` of the contract to the sender\n      * account.\n      */\n    constructor() public {\n        owner = msg.sender;\n    }\n\n    /**\n      * @dev Throws if called by any account other than the owner.\n      */\n    modifier onlyOwner() {\n        require(msg.sender == owner);\n        _;\n    }\n\n    /**\n    * @dev Allows the current owner to transfer control of the contract to a newOwner.\n    * @param newOwner The address to transfer ownership to.\n    */\n    function transferOwnership(address newOwner) public onlyOwner {\n        if (newOwner != address(0)) {\n            owner = newOwner;\n        }\n    }\n}\n\n// KlayTogetter\ncontract KlayTogetter is Ownable{\n    using SafeMath for uint256;\n    using SafeMath for uint8;\n\n    struct Member{\n        string kakaoId;\n        address memberAddress;\n    }\n\n    struct Nest{\n        uint256 seq;\n        address opener;\n        string nestName;\n        uint8 eggCnt;\n        uint8 paymentTurn;\n        uint256 amount;\n        uint8 period;\n        uint8 rate;\n        uint256 joinAmount;\n        uint256 createDate;\n        uint256 depositDate;\n        uint256 PaymentDate;\n\n        // NestEggsInfo[] nestEggsInfos;\n        address[] eggsAddress;\n        mapping(address => NestEggsInfo) nestMemberMapping;\n        mapping(uint8 => address) nestMemberTurnMapping;\n\n    }\n\n    struct NestEggsInfo{\n        uint256 memberId;\n        uint8 turn;\n        uint8 payCnt;\n    }\n\n    Member[] public members;\n    uint256[] public nestIdList;\n\n    mapping(string => uint256)  memberMappingKakaoIdToMemberSeq;\n    mapping(address => uint256) memberMappingAddrToMemberSeq;\n    mapping(uint256 => address) memberMappingMemberSeqToAddr;\n    mapping(uint256 => Nest) public nestMapping;\n    mapping(address => uint256[]) memberJoinNestIdListMapping;\n\n    event createNestEvent(address _addr,uint256 sendValue);\n    event joinNestEvent(uint256 joinAmount,uint256 sendValue);\n\n    function createMember(string _kakaoId,address _address) external {\n        require(memberMappingAddrToMemberSeq[_address] == 0,\"already exist id\");\n        uint256 memberSeq = members.push(Member(_kakaoId, _address));\n        memberMappingAddrToMemberSeq[_address] = memberSeq;\n        memberMappingMemberSeqToAddr[memberSeq] = _address;\n        memberMappingKakaoIdToMemberSeq[_kakaoId] = memberSeq;\n\n    }\n\n    function createNest(string _nestName,uint8 _eggCnt, uint256 _amount,uint8 _period, uint8 _rate,uint8 _turn)\n    payable external {\n        require(msg.value > 0,\"give me money\");\n        emit createNestEvent(msg.sender,msg.value);\n        uint256 nestId = nestIdList.length+1;\n        nestIdList.push(nestId);\n        nestMapping[nestId].seq=nestId;\n        nestMapping[nestId].opener=msg.sender;\n        nestMapping[nestId].nestName=_nestName;\n        nestMapping[nestId].eggCnt=_eggCnt;\n        nestMapping[nestId].paymentTurn=0;\n        nestMapping[nestId].amount=_amount;\n        nestMapping[nestId].period=_period;\n        nestMapping[nestId].rate=_rate;\n        nestMapping[nestId].joinAmount=msg.value;\n        nestMapping[nestId].createDate=now;\n\n        //nestMapping[nestId].depositDate=msg.sender;\n        //nestMapping[nestId].PaymentDate=msg.sender;\n\n        _joinNest(nestId,_turn);\n\n    }\n\n    function _joinNest(uint256 _nestId,uint8 _turn) internal {\n\n        nestMapping[_nestId].nestMemberTurnMapping[_turn]=msg.sender;\n        nestMapping[_nestId].eggsAddress.push(msg.sender);\n        nestMapping[_nestId].nestMemberMapping[msg.sender].memberId=memberMappingAddrToMemberSeq[msg.sender];\n        nestMapping[_nestId].nestMemberMapping[msg.sender].turn=_turn;\n        nestMapping[_nestId].nestMemberMapping[msg.sender].payCnt.add(1);\n        memberJoinNestIdListMapping[msg.sender].push(_nestId);\n\n        // nestMapping[_nestId].nestEggsInfos.push(NestEggsInfo({memberId:memberMappingAddrToMemberSeq[msg.sender],turn:_turn,payYn:1}));\n\n\n    }\n\n    function joinNest(uint256 _nestId,uint8 _turn) payable external{\n        require(0==nestMapping[_nestId].nestMemberTurnMapping[_turn],'already choose turn');\n        require(msg.sender!=nestMapping[_nestId].nestMemberTurnMapping[_turn],'already join nest');\n        require(msg.value > 0,\"give me money\");\n        nestMapping[_nestId].amount.add(msg.value);\n\n        emit joinNestEvent(nestMapping[_nestId].amount,msg.value);\n        _joinNest(_nestId,_turn);\n    }\n\n    // function\n    //   \n    function payment(uint256 _nestId) external onlyOwner{\n        uint8 turn = nestMapping[_nestId].paymentTurn;\n        address paymentAddress = nestMapping[_nestId].nestMemberTurnMapping[turn];\n        uint256 pay = nestMapping[_nestId].amount;\n        paymentAddress.transfer(pay);\n    }\n\n    function getMemberAdressListOfNest(uint256 _nestId) external view returns(address[]){\n        return nestMapping[_nestId].eggsAddress;\n    }\n\n    function getEggInfoOfNest(uint256 _nestId, address _eggAddress) external view returns(uint256,uint8,uint8){\n        uint256 memberId =nestMapping[_nestId].nestMemberMapping[_eggAddress].memberId;\n        uint8 turn=nestMapping[_nestId].nestMemberMapping[_eggAddress].turn;\n        uint8 payCnt=nestMapping[_nestId].nestMemberMapping[_eggAddress].payCnt;\n        return (memberId,turn,payCnt);\n    }\n\n    function getMemberJoinNestIdList() public view returns (uint256[]){\n        return memberJoinNestIdListMapping[msg.sender];\n    }\n\n    // function getNestEggsInfosLengthOfNest(uint256 _nestId)external view returns(uint256){\n    //     return nestMapping[_nestId].nestEggsInfos.length;\n    // }\n\n    function getNestIdListLength() public view returns(uint256){\n        return nestIdList.length;\n    }\n\n    function getNestIdList() public view returns(uint256[]){\n        return nestIdList;\n    }\n\n    function getMemberSeqByKakaoId(string _kakaoId)external view returns(uint256){\n        return memberMappingKakaoIdToMemberSeq[_kakaoId];\n    }\n\n    function getCABalance() public view returns (uint256) {\n        return address(this).balance;\n    }\n\n    function getMemberId() public view returns(uint256){\n        return memberMappingAddrToMemberSeq[msg.sender];\n    }\n\n\n\n    function getMemberLength() public view returns(uint256){\n        return members.length;\n    }\n\n    function connectionTest() public pure returns(string){\n        return \"OK\";\n    }\n\n\n}\n",
  "sourcePath": "/Users/terry/WebstormProjects/klaytn/NodejsExpressApp/contracts/Klaytogetter.sol",
  "compiler": {
    "name": "solc",
    "version": "0.4.25+commit.59dbf8f1.Emscripten.clang"
  },
  "schemaVersion": "2.0.2",
  "updatedAt": "2019-10-21T10:37:57.677Z"
}